{
  "_format": "hh-sol-artifact-1",
  "contractName": "BuyStorage",
  "sourceName": "contracts/BuyStorage.sol",
  "abi": [
    {
      "inputs": [
        {
          "internalType": "address payable",
          "name": "_to",
          "type": "address"
        }
      ],
      "name": "SendMony",
      "outputs": [],
      "stateMutability": "nonpayable",
      "type": "function"
    },
    {
      "inputs": [
        {
          "internalType": "string",
          "name": "_Date",
          "type": "string"
        }
      ],
      "name": "buyGold",
      "outputs": [],
      "stateMutability": "payable",
      "type": "function"
    },
    {
      "inputs": [
        {
          "internalType": "string",
          "name": "_Date",
          "type": "string"
        }
      ],
      "name": "buyPreminum",
      "outputs": [],
      "stateMutability": "payable",
      "type": "function"
    },
    {
      "inputs": [],
      "name": "currentRole",
      "outputs": [
        {
          "components": [
            {
              "internalType": "address",
              "name": "userAddress",
              "type": "address"
            },
            {
              "internalType": "string",
              "name": "role",
              "type": "string"
            },
            {
              "internalType": "string",
              "name": "date",
              "type": "string"
            }
          ],
          "internalType": "struct BuyStorage.UserRole[]",
          "name": "",
          "type": "tuple[]"
        }
      ],
      "stateMutability": "view",
      "type": "function"
    },
    {
      "inputs": [
        {
          "internalType": "uint256",
          "name": "",
          "type": "uint256"
        }
      ],
      "name": "userRoles",
      "outputs": [
        {
          "internalType": "address",
          "name": "userAddress",
          "type": "address"
        },
        {
          "internalType": "string",
          "name": "role",
          "type": "string"
        },
        {
          "internalType": "string",
          "name": "date",
          "type": "string"
        }
      ],
      "stateMutability": "view",
      "type": "function"
    }
  ],
  "bytecode": "0x608060405234801561001057600080fd5b50610dc5806100206000396000f3fe60806040526004361061004a5760003560e01c80631ebe4c821461004f57806340ffb2911461007a5780636df7718a14610096578063acbd75a7146100b2578063e6fa39d6146100f1575b600080fd5b34801561005b57600080fd5b5061006461011a565b6040516100719190610b0d565b60405180910390f35b610094600480360381019061008f91906108e2565b6102f3565b005b6100b060048036038101906100ab91906108e2565b610440565b005b3480156100be57600080fd5b506100d960048036038101906100d4919061092b565b61058d565b6040516100e893929190610ac8565b60405180910390f35b3480156100fd57600080fd5b50610118600480360381019061011391906108b5565b6106f7565b005b60606000805480602002602001604051908101604052809291908181526020016000905b828210156102ea57838290600052602060002090600302016040518060600160405290816000820160009054906101000a900473ffffffffffffffffffffffffffffffffffffffff1673ffffffffffffffffffffffffffffffffffffffff1673ffffffffffffffffffffffffffffffffffffffff1681526020016001820180546101c790610c7b565b80601f01602080910402602001604051908101604052809291908181526020018280546101f390610c7b565b80156102405780601f1061021557610100808354040283529160200191610240565b820191906000526020600020905b81548152906001019060200180831161022357829003601f168201915b5050505050815260200160028201805461025990610c7b565b80601f016020809104026020016040519081016040528092919081815260200182805461028590610c7b565b80156102d25780601f106102a7576101008083540402835291602001916102d2565b820191906000526020600020905b8154815290600101906020018083116102b557829003601f168201915b5050505050815250508152602001906001019061013e565b50505050905090565b6611c37937e08000341461030657600080fd5b61030e610741565b33816000019073ffffffffffffffffffffffffffffffffffffffff16908173ffffffffffffffffffffffffffffffffffffffff16815250506040518060400160405280600881526020017f7072656d696e756d0000000000000000000000000000000000000000000000008152508160200181905250818160400181905250600081908060018154018082558091505060019003906000526020600020906003020160009091909190915060008201518160000160006101000a81548173ffffffffffffffffffffffffffffffffffffffff021916908373ffffffffffffffffffffffffffffffffffffffff160217905550602082015181600101908051906020019061041c929190610778565b506040820151816002019080519060200190610439929190610778565b5050505050565b660aa87bee538000341461045357600080fd5b61045b610741565b33816000019073ffffffffffffffffffffffffffffffffffffffff16908173ffffffffffffffffffffffffffffffffffffffff16815250506040518060400160405280600481526020017f676f6c64000000000000000000000000000000000000000000000000000000008152508160200181905250818160400181905250600081908060018154018082558091505060019003906000526020600020906003020160009091909190915060008201518160000160006101000a81548173ffffffffffffffffffffffffffffffffffffffff021916908373ffffffffffffffffffffffffffffffffffffffff1602179055506020820151816001019080519060200190610569929190610778565b506040820151816002019080519060200190610586929190610778565b5050505050565b6000818154811061059d57600080fd5b90600052602060002090600302016000915090508060000160009054906101000a900473ffffffffffffffffffffffffffffffffffffffff16908060010180546105e690610c7b565b80601f016020809104026020016040519081016040528092919081815260200182805461061290610c7b565b801561065f5780601f106106345761010080835404028352916020019161065f565b820191906000526020600020905b81548152906001019060200180831161064257829003601f168201915b50505050509080600201805461067490610c7b565b80601f01602080910402602001604051908101604052809291908181526020018280546106a090610c7b565b80156106ed5780601f106106c2576101008083540402835291602001916106ed565b820191906000526020600020905b8154815290600101906020018083116106d057829003601f168201915b5050505050905083565b8073ffffffffffffffffffffffffffffffffffffffff166108fc479081150290604051600060405180830381858888f1935050505015801561073d573d6000803e3d6000fd5b5050565b6040518060600160405280600073ffffffffffffffffffffffffffffffffffffffff16815260200160608152602001606081525090565b82805461078490610c7b565b90600052602060002090601f0160209004810192826107a657600085556107ed565b82601f106107bf57805160ff19168380011785556107ed565b828001600101855582156107ed579182015b828111156107ec5782518255916020019190600101906107d1565b5b5090506107fa91906107fe565b5090565b5b808211156108175760008160009055506001016107ff565b5090565b600061082e61082984610b54565b610b2f565b90508281526020810184848401111561084a57610849610d41565b5b610855848285610c39565b509392505050565b60008135905061086c81610d61565b92915050565b600082601f83011261088757610886610d3c565b5b813561089784826020860161081b565b91505092915050565b6000813590506108af81610d78565b92915050565b6000602082840312156108cb576108ca610d4b565b5b60006108d98482850161085d565b91505092915050565b6000602082840312156108f8576108f7610d4b565b5b600082013567ffffffffffffffff81111561091657610915610d46565b5b61092284828501610872565b91505092915050565b60006020828403121561094157610940610d4b565b5b600061094f848285016108a0565b91505092915050565b60006109648383610a71565b905092915050565b61097581610beb565b82525050565b61098481610beb565b82525050565b600061099582610b95565b61099f8185610bb8565b9350836020820285016109b185610b85565b8060005b858110156109ed57848403895281516109ce8582610958565b94506109d983610bab565b925060208a019950506001810190506109b5565b50829750879550505050505092915050565b6000610a0a82610ba0565b610a148185610bc9565b9350610a24818560208601610c48565b610a2d81610d50565b840191505092915050565b6000610a4382610ba0565b610a4d8185610bda565b9350610a5d818560208601610c48565b610a6681610d50565b840191505092915050565b6000606083016000830151610a89600086018261096c565b5060208301518482036020860152610aa182826109ff565b91505060408301518482036040860152610abb82826109ff565b9150508091505092915050565b6000606082019050610add600083018661097b565b8181036020830152610aef8185610a38565b90508181036040830152610b038184610a38565b9050949350505050565b60006020820190508181036000830152610b27818461098a565b905092915050565b6000610b39610b4a565b9050610b458282610cad565b919050565b6000604051905090565b600067ffffffffffffffff821115610b6f57610b6e610d0d565b5b610b7882610d50565b9050602081019050919050565b6000819050602082019050919050565b600081519050919050565b600081519050919050565b6000602082019050919050565b600082825260208201905092915050565b600082825260208201905092915050565b600082825260208201905092915050565b6000610bf682610c0f565b9050919050565b6000610c0882610c0f565b9050919050565b600073ffffffffffffffffffffffffffffffffffffffff82169050919050565b6000819050919050565b82818337600083830152505050565b60005b83811015610c66578082015181840152602081019050610c4b565b83811115610c75576000848401525b50505050565b60006002820490506001821680610c9357607f821691505b60208210811415610ca757610ca6610cde565b5b50919050565b610cb682610d50565b810181811067ffffffffffffffff82111715610cd557610cd4610d0d565b5b80604052505050565b7f4e487b7100000000000000000000000000000000000000000000000000000000600052602260045260246000fd5b7f4e487b7100000000000000000000000000000000000000000000000000000000600052604160045260246000fd5b600080fd5b600080fd5b600080fd5b600080fd5b6000601f19601f8301169050919050565b610d6a81610bfd565b8114610d7557600080fd5b50565b610d8181610c2f565b8114610d8c57600080fd5b5056fea2646970667358221220d66cb5042f8d62248ff0ee6c4abddaf03ac1923dc426a916090ccbd14d0842e664736f6c63430008070033",
  "linkReferences": {},
  "deployedLinkReferences": {}
}