{
  "_format": "hh-sol-artifact-1",
  "contractName": "Files",
  "sourceName": "contracts/Files.sol",
  "abi": [
    {
      "inputs": [
        {
          "internalType": "string",
          "name": "_FileName",
          "type": "string"
        },
        {
          "internalType": "string",
          "name": "_FileHash",
          "type": "string"
        },
        {
          "internalType": "string",
          "name": "_FileSize",
          "type": "string"
        },
        {
          "internalType": "string[]",
          "name": "_sharedUsers",
          "type": "string[]"
        }
      ],
      "name": "createFiles",
      "outputs": [],
      "stateMutability": "nonpayable",
      "type": "function"
    },
    {
      "inputs": [
        {
          "internalType": "address",
          "name": "_UserAddress",
          "type": "address"
        },
        {
          "internalType": "uint256",
          "name": "index",
          "type": "uint256"
        }
      ],
      "name": "deleteFile",
      "outputs": [],
      "stateMutability": "nonpayable",
      "type": "function"
    },
    {
      "inputs": [
        {
          "internalType": "uint256",
          "name": "",
          "type": "uint256"
        }
      ],
      "name": "files",
      "outputs": [
        {
          "internalType": "address",
          "name": "userAddress",
          "type": "address"
        },
        {
          "internalType": "string",
          "name": "fileSize",
          "type": "string"
        },
        {
          "internalType": "uint256",
          "name": "fileCount",
          "type": "uint256"
        },
        {
          "internalType": "string",
          "name": "fileName",
          "type": "string"
        },
        {
          "internalType": "string",
          "name": "fileHash",
          "type": "string"
        }
      ],
      "stateMutability": "view",
      "type": "function"
    },
    {
      "inputs": [],
      "name": "getFiles",
      "outputs": [
        {
          "components": [
            {
              "internalType": "address",
              "name": "userAddress",
              "type": "address"
            },
            {
              "internalType": "string",
              "name": "fileSize",
              "type": "string"
            },
            {
              "internalType": "uint256",
              "name": "fileCount",
              "type": "uint256"
            },
            {
              "internalType": "string",
              "name": "fileName",
              "type": "string"
            },
            {
              "internalType": "string",
              "name": "fileHash",
              "type": "string"
            },
            {
              "internalType": "string[]",
              "name": "sharedUsers",
              "type": "string[]"
            }
          ],
          "internalType": "struct Files.File[]",
          "name": "",
          "type": "tuple[]"
        }
      ],
      "stateMutability": "view",
      "type": "function"
    }
  ],
  "bytecode": "0x608060405234801561001057600080fd5b506115e9806100206000396000f3fe608060405234801561001057600080fd5b506004361061004c5760003560e01c806312a9abb4146100515780632da96d731461006d578063c52f80dd1461008b578063f4c714b4146100a7575b600080fd5b61006b60048036038101906100669190610e4e565b6100db565b005b610075610248565b6040516100829190611218565b60405180910390f35b6100a560048036038101906100a09190610e0e565b610596565b005b6100c160048036038101906100bc9190610f25565b6107f1565b6040516100d29594939291906111b0565b60405180910390f35b6100e36109ef565b33816000019073ffffffffffffffffffffffffffffffffffffffff16908173ffffffffffffffffffffffffffffffffffffffff1681525050848160600181905250838160800181905250600080549050816040018181525050828160200181905250818160a00181905250600081908060018154018082558091505060019003906000526020600020906006020160009091909190915060008201518160000160006101000a81548173ffffffffffffffffffffffffffffffffffffffff021916908373ffffffffffffffffffffffffffffffffffffffff16021790555060208201518160010190805190602001906101dd929190610a3b565b50604082015181600201556060820151816003019080519060200190610204929190610a3b565b506080820151816004019080519060200190610221929190610a3b565b5060a082015181600501908051906020019061023e929190610ac1565b5050505050505050565b60606000805480602002602001604051908101604052809291908181526020016000905b8282101561058d57838290600052602060002090600602016040518060c00160405290816000820160009054906101000a900473ffffffffffffffffffffffffffffffffffffffff1673ffffffffffffffffffffffffffffffffffffffff1673ffffffffffffffffffffffffffffffffffffffff1681526020016001820180546102f59061140d565b80601f01602080910402602001604051908101604052809291908181526020018280546103219061140d565b801561036e5780601f106103435761010080835404028352916020019161036e565b820191906000526020600020905b81548152906001019060200180831161035157829003601f168201915b50505050508152602001600282015481526020016003820180546103919061140d565b80601f01602080910402602001604051908101604052809291908181526020018280546103bd9061140d565b801561040a5780601f106103df5761010080835404028352916020019161040a565b820191906000526020600020905b8154815290600101906020018083116103ed57829003601f168201915b505050505081526020016004820180546104239061140d565b80601f016020809104026020016040519081016040528092919081815260200182805461044f9061140d565b801561049c5780601f106104715761010080835404028352916020019161049c565b820191906000526020600020905b81548152906001019060200180831161047f57829003601f168201915b5050505050815260200160058201805480602002602001604051908101604052809291908181526020016000905b828210156105765783829060005260206000200180546104e99061140d565b80601f01602080910402602001604051908101604052809291908181526020018280546105159061140d565b80156105625780601f1061053757610100808354040283529160200191610562565b820191906000526020600020905b81548152906001019060200180831161054557829003601f168201915b5050505050815260200190600101906104ca565b50505050815250508152602001906001019061026c565b50505050905090565b8173ffffffffffffffffffffffffffffffffffffffff16600082815481106105c1576105c06114fd565b5b906000526020600020906006020160000160009054906101000a900473ffffffffffffffffffffffffffffffffffffffff1673ffffffffffffffffffffffffffffffffffffffff161461061357600080fd5b60006001600080549050610627919061135b565b81548110610638576106376114fd565b5b90600052602060002090600602016000828154811061065a576106596114fd565b5b90600052602060002090600602016000820160009054906101000a900473ffffffffffffffffffffffffffffffffffffffff168160000160006101000a81548173ffffffffffffffffffffffffffffffffffffffff021916908373ffffffffffffffffffffffffffffffffffffffff16021790555060018201816001019080546106e39061140d565b6106ee929190610b21565b5060028201548160020155600382018160030190805461070d9061140d565b610718929190610b21565b50600482018160040190805461072d9061140d565b610738929190610b21565b50600582018160050190805461074f929190610bae565b509050506000805480610765576107646114ce565b5b6001900381819060005260206000209060060201600080820160006101000a81549073ffffffffffffffffffffffffffffffffffffffff02191690556001820160006107b19190610c16565b60028201600090556003820160006107c99190610c16565b6004820160006107d99190610c16565b6005820160006107e99190610c56565b505090555050565b6000818154811061080157600080fd5b90600052602060002090600602016000915090508060000160009054906101000a900473ffffffffffffffffffffffffffffffffffffffff169080600101805461084a9061140d565b80601f01602080910402602001604051908101604052809291908181526020018280546108769061140d565b80156108c35780601f10610898576101008083540402835291602001916108c3565b820191906000526020600020905b8154815290600101906020018083116108a657829003601f168201915b5050505050908060020154908060030180546108de9061140d565b80601f016020809104026020016040519081016040528092919081815260200182805461090a9061140d565b80156109575780601f1061092c57610100808354040283529160200191610957565b820191906000526020600020905b81548152906001019060200180831161093a57829003601f168201915b50505050509080600401805461096c9061140d565b80601f01602080910402602001604051908101604052809291908181526020018280546109989061140d565b80156109e55780601f106109ba576101008083540402835291602001916109e5565b820191906000526020600020905b8154815290600101906020018083116109c857829003601f168201915b5050505050905085565b6040518060c00160405280600073ffffffffffffffffffffffffffffffffffffffff16815260200160608152602001600081526020016060815260200160608152602001606081525090565b828054610a479061140d565b90600052602060002090601f016020900481019282610a695760008555610ab0565b82601f10610a8257805160ff1916838001178555610ab0565b82800160010185558215610ab0579182015b82811115610aaf578251825591602001919060010190610a94565b5b509050610abd9190610c77565b5090565b828054828255906000526020600020908101928215610b10579160200282015b82811115610b0f578251829080519060200190610aff929190610a3b565b5091602001919060010190610ae1565b5b509050610b1d9190610c94565b5090565b828054610b2d9061140d565b90600052602060002090601f016020900481019282610b4f5760008555610b9d565b82601f10610b605780548555610b9d565b82800160010185558215610b9d57600052602060002091601f016020900482015b82811115610b9c578254825591600101919060010190610b81565b5b509050610baa9190610c77565b5090565b828054828255906000526020600020908101928215610c055760005260206000209182015b82811115610c04578282908054610be99061140d565b610bf4929190610b21565b5091600101919060010190610bd3565b5b509050610c129190610c94565b5090565b508054610c229061140d565b6000825580601f10610c345750610c53565b601f016020900490600052602060002090810190610c529190610c77565b5b50565b5080546000825590600052602060002090810190610c749190610c94565b50565b5b80821115610c90576000816000905550600101610c78565b5090565b5b80821115610cb45760008181610cab9190610c16565b50600101610c95565b5090565b6000610ccb610cc68461125f565b61123a565b90508083825260208201905082856020860282011115610cee57610ced611560565b5b60005b85811015610d3c57813567ffffffffffffffff811115610d1457610d1361155b565b5b808601610d218982610dcb565b85526020850194506020840193505050600181019050610cf1565b5050509392505050565b6000610d59610d548461128b565b61123a565b905082815260208101848484011115610d7557610d74611565565b5b610d808482856113cb565b509392505050565b600081359050610d9781611585565b92915050565b600082601f830112610db257610db161155b565b5b8135610dc2848260208601610cb8565b91505092915050565b600082601f830112610de057610ddf61155b565b5b8135610df0848260208601610d46565b91505092915050565b600081359050610e088161159c565b92915050565b60008060408385031215610e2557610e2461156f565b5b6000610e3385828601610d88565b9250506020610e4485828601610df9565b9150509250929050565b60008060008060808587031215610e6857610e6761156f565b5b600085013567ffffffffffffffff811115610e8657610e8561156a565b5b610e9287828801610dcb565b945050602085013567ffffffffffffffff811115610eb357610eb261156a565b5b610ebf87828801610dcb565b935050604085013567ffffffffffffffff811115610ee057610edf61156a565b5b610eec87828801610dcb565b925050606085013567ffffffffffffffff811115610f0d57610f0c61156a565b5b610f1987828801610d9d565b91505092959194509250565b600060208284031215610f3b57610f3a61156f565b5b6000610f4984828501610df9565b91505092915050565b6000610f5e8383611082565b905092915050565b6000610f7283836110f4565b905092915050565b610f838161138f565b82525050565b610f928161138f565b82525050565b6000610fa3826112dc565b610fad8185611317565b935083602082028501610fbf856112bc565b8060005b85811015610ffb5784840389528151610fdc8582610f52565b9450610fe7836112fd565b925060208a01995050600181019050610fc3565b50829750879550505050505092915050565b6000611018826112e7565b6110228185611328565b935083602082028501611034856112cc565b8060005b8581101561107057848403895281516110518582610f66565b945061105c8361130a565b925060208a01995050600181019050611038565b50829750879550505050505092915050565b600061108d826112f2565b6110978185611339565b93506110a78185602086016113da565b6110b081611574565b840191505092915050565b60006110c6826112f2565b6110d0818561134a565b93506110e08185602086016113da565b6110e981611574565b840191505092915050565b600060c08301600083015161110c6000860182610f7a565b50602083015184820360208601526111248282611082565b91505060408301516111396040860182611192565b50606083015184820360608601526111518282611082565b9150506080830151848203608086015261116b8282611082565b91505060a083015184820360a08601526111858282610f98565b9150508091505092915050565b61119b816113c1565b82525050565b6111aa816113c1565b82525050565b600060a0820190506111c56000830188610f89565b81810360208301526111d781876110bb565b90506111e660408301866111a1565b81810360608301526111f881856110bb565b9050818103608083015261120c81846110bb565b90509695505050505050565b60006020820190508181036000830152611232818461100d565b905092915050565b6000611244611255565b9050611250828261143f565b919050565b6000604051905090565b600067ffffffffffffffff82111561127a5761127961152c565b5b602082029050602081019050919050565b600067ffffffffffffffff8211156112a6576112a561152c565b5b6112af82611574565b9050602081019050919050565b6000819050602082019050919050565b6000819050602082019050919050565b600081519050919050565b600081519050919050565b600081519050919050565b6000602082019050919050565b6000602082019050919050565b600082825260208201905092915050565b600082825260208201905092915050565b600082825260208201905092915050565b600082825260208201905092915050565b6000611366826113c1565b9150611371836113c1565b92508282101561138457611383611470565b5b828203905092915050565b600061139a826113a1565b9050919050565b600073ffffffffffffffffffffffffffffffffffffffff82169050919050565b6000819050919050565b82818337600083830152505050565b60005b838110156113f85780820151818401526020810190506113dd565b83811115611407576000848401525b50505050565b6000600282049050600182168061142557607f821691505b602082108114156114395761143861149f565b5b50919050565b61144882611574565b810181811067ffffffffffffffff821117156114675761146661152c565b5b80604052505050565b7f4e487b7100000000000000000000000000000000000000000000000000000000600052601160045260246000fd5b7f4e487b7100000000000000000000000000000000000000000000000000000000600052602260045260246000fd5b7f4e487b7100000000000000000000000000000000000000000000000000000000600052603160045260246000fd5b7f4e487b7100000000000000000000000000000000000000000000000000000000600052603260045260246000fd5b7f4e487b7100000000000000000000000000000000000000000000000000000000600052604160045260246000fd5b600080fd5b600080fd5b600080fd5b600080fd5b600080fd5b6000601f19601f8301169050919050565b61158e8161138f565b811461159957600080fd5b50565b6115a5816113c1565b81146115b057600080fd5b5056fea264697066735822122073e46f0adb41d4e47700097b0ce3e36a757024cbf0772d1e4eeaaa9976ce899264736f6c63430008070033",
  "linkReferences": {},
  "deployedLinkReferences": {}
}